S00C0000626173652E737265637D
S113000071C000008EC000008CC000008AC00000D7
S113001088C0000086C0000084C0000082C00000C8
S113002080C000007EC000007CC000007AC00000D8
S113003078C0000076C0000074C0000072C00000E8
S113004070C000006EC000006CC000006AC00000F8
S113005068C0000066C0000064C0000062C0000008
S113006060C000005EC000005CC000005AC0000018
S113007058C0000056C0000054C0000052C0000028
S113008050C000004EC000004CC000004AC0000038
S113009048C0000046C0000044C0000042C0000048
S11300A040C000003EC000003CC000003AC0000058
S11300B038C0000036C0000034C0000032C0000068
S11300C030C000002EC000002CC000002AC0000078
S11300D028C0000026C0000024C0000022C0000088
S11300E020C0000011241FBECFEFD1E2DEBFCDBF80
S11300F000E00CBF12E0A0E0B2E0EAE0F2E000E0D1
S11301000BBF02C007900D92A030B107D9F722E0CF
S1130110A0E0B2E001C01D92A030B207E1F74DD0DB
S113012072C06ECFECE7F0E0808180648083EAE700
S1130130F0E08081876880830895ECE7F0E09081A7
S11301408770987F892B8083EAE7F0E08081806460
S11301508083808186FDFDCF809178009091790025
S11301600895EBDF8233910568F0823E21E0920727
S113017058F08E3122E0920748F08E3C934040F0D4
S113018080E508958EE408958EE608958AE708953B
S113019080E70895CF93DF9380E0E3DFD82F81E0F9
S11301A0E0DFC82F84E227D08D2F25D08C2F23D0D9
S11301B083E221D0DF91CF9108950CD0B3DFEADF41
S11301C02FEF81EE94E0215080409040E1F700C091
S11301D00000F5CF1092C50083E38093C400E0ECE7
S11301E0F0E080818D7F808386E08093C20088E187
S11301F08093C1000895E0ECF0E0908195FFFDCF7D
S10D02008093C6000895F894FFCF20
S9030000FC
