S01D0000726F6F6D62615F72656D6F74655F73746174696F6E2E737265633B
S11300007EC000009DC000009BC0000099C000009D
S113001097C0000095C0000093C0000091C000008C
S11300208FC000008DC000008BC0000089C000009C
S113003087C0000085C0000083C0000081C00000AC
S11300407FC00000A6C400007BC0000079C000008F
S113005077C0000075C0000073C0000071C00000CC
S11300606FC000006DC000006BC0000069C00000DC
S113007067C0000065C0000063C0000061C00000EC
S11300805FC000005DC000005BC0000059C00000FC
S113009057C0000055C0000053C0000051C000000C
S11300A04FC000004DC000004BC0000049C000001C
S11300B047C0000045C0000043C0000041C000002C
S11300C03FC000003DC000003BC0000039C000003C
S11300D037C0000035C0000033C0000031C000004C
S11300E02FC00000F10A3108F10A3A081209560932
S11300F0710975097709BA09EE09F009680A11242A
S11301001FBECFEFD1E2DEBFCDBF00E00CBF12E0D7
S1130110A0E0B2E0E4EFF9E100E00BBF02C0079019
S11301200D92AC32B107D9F726E1ACE2B2E001C0DE
S11301301D92A833B207E1F70E94580B0C94F80CF7
S11301405FCF0F921F922F923F924F925F926F92C6
S11301507F928F929F92AF92BF92CF92DF92EF9253
S1130160FF920F931F932F933F934F935F936F933C
S11301707F938F939F93AF93BF93CF93DF93EF932B
S1130180FF93FCB7FF93FFB7FF93EDB7FEB7E09380
S11301903016F0933116E0912A16F0912B16EDBF2C
S11301A0FEBFFF91FFBFFF91FCBFFF91EF91DF9175
S11301B0CF91BF91AF919F918F917F916F915F91FB
S11301C04F913F912F911F910F91FF90EF90DF90EE
S11301D0CF90BF90AF909F908F907F906F905F90E3
S11301E04F903F902F901F900F9018950F921F9251
S11301F02F923F924F925F926F927F928F929F9233
S1130200AF92BF92CF92DF92EF92FF920F931F9320
S11302102F933F934F935F936F937F938F939F930A
S1130220AF93BF93CF93DF93EF93FF93FCB7FF9309
S1130230FFB7FF93EDB7FEB7E0932A16F0932B16A2
S1130240E0913016F0913116EDBFFEBFFF91FFBF74
S1130250FF91FCBFFF91EF91DF91CF91BF91AF91DF
S11302609F918F917F916F915F914F913F912F91CA
S11302701F910F91FF90EF90DF90CF90BF90AF90C0
S11302809F908F907F906F905F904F903F902F90B2
S11302901F900F900895ECE7F0E0808180648083E4
S11302A0EAE7F0E08081876880830895ECE7F0E076
S11302B090818770987F892B8083EAE7F0E08081C2
S11302C080648083808186FDFDCF80917800909149
S11302D079000895D6E00E947C0B843221F408C092
S11302E0C15011F419C0CD2F0E947C0B8432C1F788
S11302F080910402809303028091020280930102A0
S11303000E947C0B809304020E947C0B8093020267
S11303100E947C0B8093000288E090E00E94420BD4
S1130320DACF209A289A2FEF87EA91E6215080406D
S11303309040E1F700C0000028982FEF81EE94E090
S1130340215080409040E1F700C00000289A2FEF30
S113035081EE94E0215080409040E1F700C000001D
S113036028982FEF81EE94E0215080409040E1F7EF
S113037000C00000289A2FEF81EE94E021508040C5
S11303809040E1F700C0000028982FEF81EE94E040
S1130390215080409040E1F700C00000289A089561
S11303A080E80E94840B83E80C94840B08958DE804
S11303B00E94840B80E00C94840B0895CF93DF9308
S11303C0CAE0D0E080E072DF20912116309122163D
S11303D0820F931F90932216809321162FEF81EEA4
S11303E094E0215080409040E1F700C00000219744
S11303F049F72091211630912216ADECBCEC0E94F5
S1130400B90C96958795969587959695879590932B
S1130410221680932116609121167091221680E095
S113042090E00E94C00B23E333E343EB5FE30E94BD
S1130430260C0E94940B7093201660931F16DF9174
S1130440CF9108958AE7809304028093020269DFC2
S1130450A7DFB4DF8CE80E94840B80E00E94840B49
S113046081E00E94840B8EE30E94840B80E20E9450
S1130470840B9DCF08950F931F93CF93DF938B012C
S1130480853F21E0920714F084EF91E0EC01CC3039
S11304908EEFD80714F4CCE0DEEF003328EF120718
S11304A04CF0C801815D97408E32984728F400EDE6
S11304B017E002C000E318EF89E80E94840B8D2F37
S11304C00E94840B8C2F0E94840B812F0E94840B2A
S11304D0802F0E94840BDF91CF911F910F9108957B
S11304E066246394712C0AEF10E0C12CD12C0F2EDA
S11304F0F4EFEF2EF02DFF24F3940F2EF6E08F2E61
S1130500F02D99249A940F2EFCE0AF2EF02D0F2E8F
S1130510FEEFBF2EF02DDFEFCFEF9091040280911C
S11305200302981307C09091020280910102981768
S113053009F47DC080910402803509F488C018F460
S11305408E3441F094C08E3609F4A1C0803709F48A
S11305509EC08DC080910202803529F118F48E343A
S1130560F1F12FC08E3619F0803779F02AC06D2F43
S11305707C2F08C0662D772D05C06C2D7D2D02C003
S11305806E2D7F2D882D992D2EC06D2F7C2F08C0A8
S1130590662D772D05C06C2D7D2D02C06E2D7F2D0F
S11305A0802F912F20C06D2F7C2F08C0662D772DB2
S11305B005C06C2D7D2D02C06E2D7F2D8E2D9F2D9F
S11305C012C06D2F7C2F08C0662D772D05C06C2DB1
S11305D07D2D02C06E2D7F2D8C2D9D2D04C06D2F81
S11305E07C2F8A2D9B2D6130710561F06F3F2FEFB9
S11305F0720759F061157105C9F40097B9F4802F99
S1130600912F14C0802F912F11C0802F912F0EC0D5
S1130610662D772D802F912F09C06C2D7D2D8A2D6D
S11306209B2D04C06E2D7F2D8A2D9B2D24DF809160
S11306300002883411F42A9805C08091000286349F
S113064009F42A9A83E090E00E94420B66CF8091DD
S11306500202803509F4AACF18F48E34C9F2B4CF5B
S11306608E3609F487CF803709F492CFADCF8091CD
S11306700202803509F49DCF18F48E3471F2A7CFAD
S11306808E3609F47ACF803709F485CFA0CF8091D4
S11306900202803509F490CF18F48E3419F29ACFFF
S11306A08E3609F46DCF803709F478CF93CF80E08C
S11306B0FDDD21E030E040911F16509120164817CF
S11306C0590710F020E030E0C9010895D1E085E930
S11306D00E94840B82E00E94840B87E00E94840BBA
S11306E08DE00E94840B82E090E0CCD7E0DF892B80
S11306F009F488C0D0932C0260E070E080E090E0C0
S1130700BADE55DE84EA0E94840B84E4FDD785E4D6
S1130710FBD781E4F9D784E4F7D780E8F5D772C032
S113072046DE6FEF7FE788E39FEFA5DE2FEF83ECD4
S113073099E0215080409040E1F700C0000061E062
S113074070E088EC90E097DE2FEF83ED90E321508A
S113075080409040E1F700C0000060E070E080E07D
S113076090E089DE4BC0923019F521DE6FEF7FE710
S113077088E39FEF80DE2FEF83EC99E021508040E7
S11307809040E1F700C000006FEF7FEF88EC90E04D
S113079072DE2FEF83ED90E3215080409040E1F72B
S11307A000C0000060E070E080E090E064DE26C0FD
S11307B0933011F0813011F5FADD6FEF7FE788E3B4
S11307C09FEF59DE2FEF83EC99E021508040904059
S11307D0E1F700C0000061E070E088EC90E04BDEDF
S11307E02FEF87EA91E6215080409040E1F700C066
S11307F0000060E070E080E090E03DDE83E090E0A7
S113080041D765CF89D7C82F87D79C2FC13009F02E
S1130810AACF86CF229A51D33EDD4CD75CD712DEC5
S1130820C6DD40E050E064E08AE691E0F3D640E0C3
S113083050E065E080E792E0EDD640E050E063E010
S113084086E693E0E7D6ABC308951816190684F537
S113085020913F05309140052817390799F021E090
S113086030E06EE071E0269FF001279FF00D369F87
S1130870F00D1124E15CFA4F40815181481759076A
S113088079F402C020E030E04EE051E0249FC00142
S1130890259F900D349F900D1124815C9A4F0895EB
S11308A02F5F3F4F20313105F1F680E090E008954D
S11308B080E090E00895009751F020910F05309169
S11308C0100528173907C1F021E030E006C081E0A7
S11308D08093291680E090E00895F901EE0FFF1F40
S11308E0E20FF31FEE0FFF1FE15FFA4F40815181CA
S11308F04817590769F402C020E030E0C901880FA5
S1130900991F820F931F880F991F815F9A4F089533
S11309102F5F3F4F2830310501F789E08093291676
S113092080E090E00895009759F0209137023091CB
S1130930380228173907B9F021E030E06BE506C02A
S113094081E08093291680E090E00895629FF00191
S1130950639FF00D1124E95CFD4F408151814817DC
S1130960590761F402C020E030E04BE5429FC0012A
S1130970439F900D1124895C9D4F08952F5F3F4F35
S11309802830310519F78DE08093291680E090E036
S113099008951F920F920FB60F9211248F939F9375
S11309A080912D0290912E02019690932E028093B5
S11309B02D029F918F910F900FBE0F901F9018954D
S11309C080912D0290912E02892B09F46FC080E052
S11309D090E02EE031E061E0829FF001839FF00D12
S11309E0929FF00D1124E15CFA4F4381443029F5C4
S11309F0A0912D02B0912E02829FF001839FF00DF1
S1130A00929FF00D1124E15CFA4F468157814A1BF5
S1130A105B0B578346834681578114161506ECF108
S1130A20829FF001839FF00D929FF00D1124E15CF1
S1130A30FA4F63831782168230C0829FF001839F2E
S1130A40F00D929FF00D1124E15CFA4F4481443083
S1130A5021F5A0912D02B0912E02829FF001839F77
S1130A60F00D929FF00D1124E15CFA4F46815781FD
S1130A704A1B5B0B57834683468157811416150620
S1130A8064F0829FF001839FF00D929FF00D11247A
S1130A90E15CFA4F648317821682019680319105D6
S1130AA009F09ACF10922E0210922D020895CF933E
S1130AB0DF9320E130E0AFEFBFEF6BE070E04EE09A
S1130AC051E0809135029091360201968F709927FA
S1130AD090933602809335028091350290913602CC
S1130AE0849FF001859FF00D949FF00D1124E15C2B
S1130AF0FA4F8381813029F5809135029091360235
S1130B00849FF001859FF00D949FF00D1124E15C0A
S1130B10FA4F828190E0861797079CF48091350202
S1130B2090913602849FF001859FF00D949FF00D03
S1130B301124E15CFA4F628170E0A0913502B0911A
S1130B4036022150310909F0BCCFAF3F8FEFB8070F
S1130B5011F57894CEE0D1E00CC0809135029091EB
S1130B60360201968F70992790933602809335024E
S1130B7027DF80913502909136028C9FF0018D9F82
S1130B80F00D9C9FF00D1124E15CFA4F83818130BC
S1130B9021F7F89404C0B0933602A0933502209153
S1130BA03502309136028EE091E0289FF001299FB2
S1130BB0F00D389FF00D1124E15CFA4FF0932D16DF
S1130BC0E0932C168285938590932B1680932A1696
S1130BD082E08383DF91CF910895EF92FF920F9388
S1130BE01F93CF93DF93EC018091330290913402F1
S1130BF0409749F0809142058823D9F021E030E004
S1130C00AEE0B1E004C084E08093291662C02A9F5C
S1130C10F0012B9FF00D3A9FF00D1124E15CFA4F87
S1130C209381992341F02F5F3F4F2031310579F7AC
S1130C3002C020E030E080913302909134020196AA
S1130C4090933402809333028EE091E0289FF00168
S1130C50299FF00D389FF00D11249F01265B394F19
S1130C608F01055B1A4F80E091E0D8018C011D9241
S1130C7001501040E1F7E15CFA4FDF01A55FBE4F80
S1130C808EE29BE08C93D90111979C9311971C924F
S1130C901197CC931197DC9311971C928091231692
S1130CA09091241601969093241680932316918391
S1130CB08083628351874087158281E08383285231
S1130CC0310933872287E45FFE4FD183C0831092BA
S1130CD02916DF91CF911F910F91FF90EF90089506
S1130CE08091310290913202089748F480910F0567
S1130CF090911005892BC9F081E090E004C088E050
S1130D00809329160895FC01EE0FFF1FE80FF91FC9
S1130D10EE0FFF1FE15FFA4F20813181232B39F061
S1130D2001968830910579F702C080E090E0209127
S1130D302716309128162F5F3F4F309328162093A3
S1130D402716FC01EE0FFF1FDF01A80FB91FAA0F22
S1130D50BB1FA15FBA4F11963C932E93FD011382E2
S1130D601282809131029091320201969093320264
S1130D7080933102109229160895CF9380912F0207
S1130D8090913002089750F4809137029091380284
S1130D90892BC9F041E050E02BE504C08CE080933E
S1130DA029166BC0249FF001259FF00D1124E95CE6
S1130DB0FD4F80819181892B41F04F5F5F4F483017
S1130DC0510581F702C040E050E080912E169091C9
S1130DD02F16019690932F1680932E162BE5249FA1
S1130DE0F001259FF00D1124E95CFD4F9183808370
S1130DF01382128280E090E06BE5649F9001659F0E
S1130E00300D1124DF01CBE06FEF7FEFFD01E80F20
S1130E10F91FC6A3FC013396EE0FFF1FE20FF31F69
S1130E20E95CFD4F71836083FC017B96EE0FFF1F2D
S1130E30E20FF31FE95CFD4F1182108201968031AD
S1130E40910521F72BE5249FC001259F900D1124C6
S1130E50895C9D4FFC01EA5AFF4F11821082329641
S1130E601182108280912F0290913002019690930A
S1130E70300280932F0210922916CF910895E1E851
S1130E80F0E080818460808380818C7F8083808196
S1130E908860808380818C7E808381E792E0909358
S1130EA08900809388001092850010928400EFE6F8
S1130EB0F0E0808182608083089510923402109261
S1130EC033021092320210923102109226161092BE
S1130ED0251610922E0210922D02109236021092B4
S1130EE0350210922416109223161092281610928E
S1130EF0271610922F1610922E161092291680EE95
S1130F0090E1EFE3F5E0DF019C011D9221503040B8
S1130F10E1F780E090E02EE031E0829FF001839FD2
S1130F20F00D929FF00D1124E15CFA4F13820196AB
S1130F308031910591F780E3EFE0F5E0DF011D9248
S1130F408A95E9F780E090E0FC01EE0FFF1FE80FBF
S1130F50F91FEE0FFF1FE15FFA4F11821082019615
S1130F608830910589F788ED92E0E7E3F2E0DF014C
S1130F709C011D9221503040E1F780E090E0FC019B
S1130F80EE0FFF1FE80FF91FEE0FFF1FE15FFA4F8F
S1130F901182108201968830910589F708952F9265
S1130FA03F924F925F926F927F928F929F92AF92F5
S1130FB0BF92CF92DF92EF92FF920F931F93CF9342
S1130FC0DF938091251690912616892B09F00FC383
S1130FD08091330290913402892B09F408C3F89468
S1130FE081E090E0909326168093251648DF5FDD1C
S1130FF06894552451F8992493940F2EFBE08F2E76
S1131000F02D77247394612C0F2EFBE5CF2EF02D59
S1131010412C312CE0912C16F0912D1615828285ED
S1131020938590932B1680932A168BD8E0912C16D7
S1131030F0912D1680912A1690912B169387828712
S1131040BFDCC0912C16D0912D168D8190E08D308F
S1131050910508F0C9C2FC018827EE58FF4F8F4F55
S113106080C4488559856A81C45FDE4F888199812F
S1131070B4DDD0CF10E0C12F20E0D22FCC9EF00100
S1131080CD9EF00D1124E95CFD4F22813381E09166
S11310902C16F0912D16808191812817390709F0BB
S11310A0ACC0CC9EF001CD9EF00D1124E357FD4F52
S11310B080819181892B09F495C085E092E068D400
S11310C0CC9EF001CD9EF00D1124E157FD4F6081BF
S11310D071816F5F7F4FE42CF32C182D242D332D59
S11310E0CC9EA001CD9E500D1124CA01895C9D4F58
S11310F0FC01E20FF31FE6A1E117C8F4FC01E20FC3
S1131100F31F16A1F9017B96EE0FFF1FE40FF51FE5
S1131110E95CFD4F60817181F9013396EE0FFF1F89
S1131120E40FF51FE95CFD4FE080F18028C0FC016D
S1131130E20FF31FE6A11E1322C0F9017B96EE0F06
S1131140FF1FE40FF51FE95CFD4F0190F081E02DD6
S11311506E177F07A0F4F9017B96EE0FFF1FE40FD3
S1131160F51FE95CFD4F60817181F9013396EE0F43
S1131170FF1FE40FF51FE95CFD4FE080F1802F5F56
S11311803F4F2031310509F0B3CFCC9EC001CD9E35
S1131190900D1124DC01A95CBD4F5D01EFEFFFEF61
S11311A09796FC93EE939697D6968C92D697FD01DC
S11311B0EA5AFF4F118210828081918101979183B5
S11311C08083C70142DBD5011396FC92EE921297FD
S11311D0F501E65AFF4F1083FC0193828AE192E005
S11311E0D7D30BC0CC9EF001CD9EF00D1124E95C49
S11311F0FD4F13821282158214822196C830D105C4
S113120009F03CCFE0912C16F0912D1613828091B9
S11312103302909134020197909334028093330205
S113122046DCF8CE8E819F8110DB009721F485E0A7
S11312308093291631C0FC01A381AA2371F0A33045
S113124061F02091390230913A0260817181261750
S1131250370799F0272D362D04C086E08093291690
S11312601BC0C29EF001C39EF00D1124E95CFD4F2A
S1131270428153814617570721F486E0809329164B
S11312800BC02F5F3F4F2830310559F7FC01A48371
S113129023E0238310922916E0912C16F0912D1649
S11312A08381823009F4B6CE02DCB4CE8E819F8174
S11312B0CCDA009721F485E08093291610C0DC0174
S11312C013962C91233021F087E08093291607C0D0
S11312D0FC012481238323E0248310922916E7DB75
S11312E099CE84E08B83E3DB95CEFADC93CE8E81BA
S11312F09F81E1DAFC01892B99F182819381009726
S113130069F0A0912C16B0912D162D913C91821765
S1131310930721F089E08093291622C08481958166
S1131320892B81F013821282158214821182108219
S1131330809131029091320201979093320280930E
S113134031020EC0A0912C16B0912D168D919C9156
S113135011979383828385E013968C9310922916B8
S1131360E0912C16F0912D168381823009F452CE2F
S11313709EDB50CE8E819F819EDAEC01892B61F138
S11313808C819D81892B11F47C826D828A819B8161
S1131390009719F4809229161FC057DA009721F498
S11313A085E08093291618C0DC0113962C911397BD
S11313B0253091F41B821A821D821C8219821882A4
S11313C0209131023091320221503109309332029E
S11313D02093310213969C926ADB1CCECEDC1ACE8B
S11313E08E819F81A0DAEC018A819B812EDA20977D
S11313F009F410CE2A813B812115310579F4E0915D
S11314002C16F0912D16808191819B838A837C8296
S11314106D828281C65ADF4F8883FCCDA0912C1641
S1131420B0912D164D915C9111972417350731F425
S11314308C819D8101969D838C83ECCD26E013964F
S11314402C931397FE01EA5AFF4F208131812F5FBD
S11314503F4F318320833296608171816F5F7F4F6C
S1131460718360832E813F812F3F3F4F51F0FE01F6
S11314703896272D362D419151914F3F5F4FB9F446
S113148002C020E030E04D915C911197F901EE0F1C
S1131490FF1FEC0FFD1F5783468377AB66AB129695
S11314A04C911297FE01E20FF31F46A305C02F5F74
S11314B03F4F20313105F9F612963C911297FC0109
S11314C02281321718F412962C912283F0DAA2CDDD
S11314D08E819F8128DAEC018A819B81B6D98C01A7
S11314E0209709F497CDE0912C16F0912D16808168
S11314F091812A813B812817390709F08BCD8C8192
S11315009D818230910520F001979D838C8382CD4B
S1131510FE01EA5AFF4FA080B180A114B10409F47E
S113152055C03296608171816F5F7F4FCE01869680
S1131530B297DE011696AE014A5A5F4FE12CD12CC8
S1131540F82C9E01EC0129902F1440F460817181E4
S1131550EC901196DC901197F22C0FC02F100DC057
S1131560808191816817790738F4EC901196DC90AA
S11315701197F22CBC0101C0F22C32961296E4179A
S1131580F50709F7E9012FEF3FEF3FA32EA38EAA3A
S1131590FE01EA5AFF4F31E0A31AB108B182A082DA
S11315A08E2D9D2D52D9FE01E65AFF4F2081D80180
S11315B012962C93EA82DB82F082FC019382E09102
S11315C02C16F0912D16938272DA24CD1B821A8286
S11315D01D821C82C65ADF4F8881D80112968C93D3
S11315E019CD9B8264DA16CD5092291613CDDF9162
S11315F0CF911F910F91FF90EF90DF90CF90BF900C
S1131600AF909F908F907F906F905F904F903F909E
S11316102F9008952091251630912616232B89F0BA
S1131620F894E0912C16F0912D166283518740872F
S113163021E02583E45FFE4F918380830E94F600BE
S113164001C0CBDA80912916843029F080912316C9
S113165090912416089580E090E0089580912516D5
S113166090912616892B21F483E0809329160895FE
S1131670F894E0912C16F0912D1683E085830C9458
S1131680F60008952091251630912616232B21F477
S113169083E0809329160895F894E0912C16F09134
S11316A02D1626E02583978386830C94F6000895EF
S11316B0B1C808951092C50083E38093C400E0ECA0
S11316C0F0E080818D7F808386E08093C20088E192
S11316D08093C10008951092CD0083E38093CC00E1
S11316E0E8ECF0E080818D7F808386E08093CA00FF
S11316F088E18093C9000895E0ECF0E080818823BC
S1131700ECF78091C6000895E8ECF0E0908195FF35
S1131710FDCF8093CE000895E8ECF0E0808188232B
S1131720ECF78091CE00089570D088F09F5790F028
S1131730B92F9927B751A0F0D1F0660F771F881FF2
S1131740991F1AF0BA95C9F712C0B13081F077D059
S1131750B1E0089574C0672F782F8827B85F39F0F7
S1131760B93FCCF3869577956795B395D9F73EF451
S113177090958095709561957F4F8F4F9F4F0895F9
S1131780E89409C097FB3EF4909580957095619517
S11317907F4F8F4F9F4F9923A9F0F92F96E9BB27CD
S11317A09395F695879577956795B795F111F8CF49
S11317B0FAF4BB0F11F460FF1BC06F5F7F4F8F4FB4
S11317C09F4F16C0882311F096E911C0772321F0AA
S11317D09EE8872F762F05C0662371F096E8862F42
S11317E070E060E02AF09A95660F771F881FDAF799
S11317F0880F9695879597F9089557FD9058440F4B
S1131800551F59F05F3F71F04795880F97FB991F5B
S113181061F09F3F79F08795089512161306140618
S1131820551FF2CF4695F1DF08C0161617061806A5
S1131830991FF1CF86957105610508940895E89480
S1131840BB2766277727CB0197F908950BD078C07B
S113185069D028F06ED018F0952309F05AC05FC003
S11318601124EECFCADFA0F3959FD1F3950F50E07A
S1131870551F629FF001729FBB27F00DB11D639F3E
S1131880AA27F00DB11DAA1F649F6627B00DA11DE4
S1131890661F829F2227B00DA11D621F739FB00D8A
S11318A0A11D621F839FA00D611D221F749F3327FA
S11318B0A00D611D231F849F600D211D822F762F93
S11318C06A2F11249F5750408AF0E1F088234AF090
S11318D0EE0FFF1FBB1F661F771F881F91505040DC
S11318E0A9F79E3F510570F014C0AACF5F3FECF3F7
S11318F0983EDCF3869577956795B795F795E795C8
S11319009F5FC1F7FE2B880F911D9695879597F9D8
S1131910089597F99F6780E870E060E008959FEF6D
S113192080EC089500240A94161617061806090672
S1131930089500240A941216130614060506089541
S1131940092E0394000C11F4882352F0BB0F40F4C9
S1131950BF2B11F460FF04C06F5F7F4F8F4F9F4F09
S11319600895EE0FFF1F881F8BBF0790F691E02D9F
S11319701994A29FB001B39FC001A39F700D811D54
S11319801124911DB29F700D811D1124911D089584
S11319900F931F93CF93DF93E0913416F091351694
S11319A0238121FF1BC08C01D0E0C0E0F8018191AC
S11319B08F016091341670913516DB011896ED9104
S11319C0FC911997882331F01995892B79F3DFEF6E
S11319D0CFEFECCF8AE01995892B19F08FEF9FEFA9
S11319E002C08D2F9C2FDF91CF911F910F910895ED
S10719F0F894FFCF95
S11319F4487A7A7A7A736F6D657468696E67206958
S1131A04732077616974696E6700746172676574C1
S10F1A1420702069732072656164640016
S9030000FC
