S0130000726F6F6D62615F746573742E7372656372
S113000071C000008EC000008CC000008AC00000D7
S113001088C0000086C0000084C0000082C00000C8
S113002080C000007EC000007CC000007AC00000D8
S113003078C0000076C0000074C0000072C00000E8
S113004070C000006EC000006CC000006AC00000F8
S113005068C0000066C0000064C0000062C0000008
S113006060C000005EC000005CC000005AC0000018
S113007058C0000056C0000054C0000052C0000028
S113008050C000004EC000004CC000004AC0000038
S113009048C0000046C0000044C0000042C0000048
S11300A040C000003EC000003CC000003AC0000058
S11300B038C0000036C0000034C0000032C0000068
S11300C030C000002EC000002CC000002AC0000078
S11300D028C0000026C0000024C0000022C0000088
S11300E020C0000011241FBECFEFD1E2DEBFCDBF80
S11300F000E00CBF12E0A0E0B2E0E0EAF2E000E0D1
S11301000BBF02C007900D92A431B107D9F722E0CA
S1130110A4E1B2E001C01D92A431B207E1F764D0BA
S1130120BDC06ECF209A289A2FEF87EA91E621501E
S113013080409040E1F700C0000028982FEF81EE46
S113014094E0215080409040E1F700C00000289ADC
S11301502FEF81EE94E0215080409040E1F700C001
S1130160000028982FEF81EE94E0215080409040C9
S1130170E1F700C00000289A2FEF81EE94E02150AF
S113018080409040E1F700C0000028982FEF81EEF6
S113019094E0215080409040E1F700C00000289A8C
S11301A0089580E86BD083E869C00895BBDFF9DF68
S11301B08CE864D080E062D081E060D08EE35ED0D1
S11301C080E25CC0089585E959D082E057D088E088
S11301D055D08BE153C00895CF93C3E057D038D0A6
S11301E0C150E1F7CF91089511D021D0DFDF80E035
S11301F092E036D0E8DF2FEF81EE94E0215080408A
S11302009040E1F700C00000E7DFF4CF1092C50092
S113021083E38093C400E0ECF0E080818D7F8083F1
S113022086E08093C20088E18093C1000895109213
S1130230CD0083E38093CC00E8ECF0E080818D7FF7
S1130240808386E08093CA0088E18093C900089582
S1130250E0ECF0E0908195FFFDCF8093C600089517
S1130260CF93DF93EC018881882329F02196F0DF76
S113027089918111FCCFDF91CF910895E8ECF0E0F2
S1130280908195FFFDCF8093CE000895E8ECF0E0D7
S113029080818823ECF78091CE000895F894FFCFF5
S11302A0526F626F7420696E697469616C697A65F2
S10702B064210A00B7
S9030000FC
